:020000040800F2
:10000000880A0020C90100087114000817130008AD
:100010006D140008CF02000853180008000000000B
:100020000000000000000000000000004D16000865
:10003000D302000800000000211600084F16000837
:10004000E3010008E3010008E3010008E301000800
:10005000E3010008E3010008E3010008E3010008F0
:10006000E3010008E3010008E3010008E3010008E0
:10007000E3010008E3010008E3010008E3010008D0
:10008000E3010008E3010008E3010008E3010008C0
:10009000E3010008E3010008E3010008E3010008B0
:1000A000E3010008B1160008E3010008E3010008BD
:1000B000E3010008E3010008C1160008E30100089D
:1000C000E3010008E3010008E3010008E301000880
:1000D000E3010008E3010008E3010008E301000870
:1000E000E3010008E3010008E301000800F002F862
:1000F00000F05AF80AA090E8000C82448344AAF168
:100100000107DA4501D100F04FF8AFF2090EBAE865
:100110000F0013F0010F18BFFB1A43F0010318473B
:10012000EC1800000C1900000A444FF0000C10F805
:10013000013B13F0070408BF10F8014B1D1108BF65
:1001400010F8015B641E05D010F8016B641E01F805
:10015000016BF9D113F0080F1EBF10F8014BAD1C55
:100160000C1B09D16D1E58BF01F801CBFAD505E073
:1001700014F8016B01F8016B6D1EF9D59142D6D3CD
:10018000704700000023002400250026103A28BFF5
:1001900078C1FBD8520728BF30C148BF0B607047F9
:1001A0001FB51FBD10B510BD00F058F81146FFF780
:1001B000F7FF01F0D3FB00F076F803B4FFF7F2FF8E
:1001C00003BC00F07DF8000009488047094800475B
:1001D000FEE7FEE7FEE7FEE7FEE7FEE7FEE7FEE7F7
:1001E000FEE7FEE704480549054A064B7047000054
:1001F000AD160008ED00000888040020880A0020E1
:1002000088060020880600204FF0000200B5134643
:1002100094469646203922BFA0E80C50A0E80C5026
:10022000B1F12001BFF4F7AF090728BFA0E80C50D7
:1002300048BF0CC05DF804EB890028BF40F8042BD0
:1002400008BF704748BF20F8022B11F0804F18BF3D
:1002500000F8012B7047704770477047754600F0F3
:100260002BF8AE4605006946534620F00700854648
:1002700018B020B5FFF7B6FFBDE820404FF00006EC
:100280004FF000074FF000084FF0000B21F007017E
:10029000AC46ACE8C009ACE8C009ACE8C009ACE8C1
:1002A000C0098D46704710B50446AFF30080204664
:1002B000BDE81040FFF781BF0048704724040020CC
:1002C00001491820ABBEFEE726000200704700BFC0
:1002D000FEE7704770B5044600F0B0F906462546C3
:1002E000681C10B104480078054400BF00F0A6F96E
:1002F000801BA842FAD370BD8C0300202DE9F8477B
:100300000346002294466EE14FF0010808FA02F419
:10031000D1F8008008EA0400A0427DD1DFF8DCA219
:10032000D1F80480A8EB0A09D0453AD014DCB8F122
:10033000030F50D009DCB8F1000F31D0B8F1010F34
:100340001CD0B8F1020F49D120E0B8F1110F18D03C
:10035000B8F1120F42D11EE0B9F5881F25D006DC96
:10036000B9F5803F20D0B9F5801F37D11AE0B9F533
:10037000001F18D0B9F5041F30D117E0D1F80CC018
:100380002DE0D1F80C8008F1040C28E0D1F80C80A5
:1003900008F1080C23E0D1F80C8008F10C0C1EE0E9
:1003A00000BF00BF00BF00BF00BF00BFD1F8088082
:1003B000B8F1000F02D14FF0040C0BE0D1F8088027
:1003C000B8F1010F03D14FF0080C1C6102E04FF0AF
:1003D000080C5C6103E04FF0000C00E000BF00BFC0
:1003E000FF2801D8984601E003F104084646FF289B
:1003F00002D84FEA820803E0A2F108084FEA880811
:100400004746D6F800804FF00F0909FA07F928EAA5
:1004100009080CFA07F900E088E048EA0908C6F87C
:100420000080D1F8048008F08058B8F1805F7DD159
:1004300000BFDFF8CC81D8F8188048F00108DFF859
:10044000C091C9F81880C846D8F8188008F001088B
:10045000CDF8008000BF00BF4FEAB9384FEA9209DB
:1004600058F829504FEA82784FEA18794FF00F0870
:1004700008FA09F825EA0805DFF88881434502D122
:100480004FF0000816E0DFF88081434502D14FF0BD
:1004900001080FE0DFF87481434502D14FF00208F4
:1004A00008E0DFF86C81434502D14FF0030801E01A
:1004B0004FF004084FEA82794FEA197908FA09F8EF
:1004C00048EA0505DFF84C814FEA920948F82950BF
:1004D000D1F8048008F48038B8F5803F0AD1DFF8FD
:1004E0003881D8F8008048EA0008DFF82C91C9F874
:1004F000008009E0DFF82081D8F8008028EA0008B1
:10050000DFF81491C9F80080D1F8048008F40038AD
:10051000B8F5003F10D1DFF8008108F10408D8F8E1
:10052000008048EA0008DFF8F09000E05AE009F1A6
:100530000409C9F800800DE0DFF8DC8008F1040848
:10054000D8F8008028EA0008DFF8CC9009F1040907
:10055000C9F80080D1F8048008F48018B8F5801F2D
:100560000ED1DFF8B48008F10808D8F8008048EA16
:100570000008DFF8A49009F10809C9F800800DE02F
:10058000DFF8948008F10808D8F8008028EA00080D
:10059000DFF8849009F10809C9F80080D1F80480D7
:1005A00008F40018B8F5001F0ED1DFF86C8008F1D0
:1005B0000C08D8F8008048EA0008DFF85C9009F1E0
:1005C0000C09C9F800800DE0DFF84C8008F10C0838
:1005D000D8F8008028EA0008DFF83C9009F10C09FF
:1005E000C9F80080521CD1F8008028FA02F8B8F14E
:1005F000000F7FF489AEBDE8F887000000001110FD
:100600000010024000080140000C014000100140B1
:1006100000140140080001400004014010B5C26808
:1006200021EA020302EA010443EA0443036110BD24
:100630000AB1016101E00B040361704701480068E1
:1006400070470000840300200348006803490978CC
:100650000844014908607047840300208C0300208F
:1006600010B50848006840F01000064908600320F3
:1006700000F0D2F80F2000F007F800F055F8002045
:1006800010BD000000200240F0B587B004460026EF
:100690000027002500BF1F48806940F400601D4905
:1006A00088610846806900F40060009000BF00BFC8
:1006B00001A902A800F08AF900F0B0F90646164830
:1006C000B6FBF0F0471E15481549086040F2E731C7
:1006D0001348C1604760002101618160816100F0C1
:1006E0006DFC054695B90E4800F0BEFC05466DB997
:1006F000192000F043F8102C07D2002221461920BF
:1007000000F04CF80748046000E00125284607B0D7
:10071000F0BD00000010024040420F00002C0140DC
:10072000DC0300208803002008B500BF1148806961
:1007300040F001000F4988610846806900F001001F
:10074000009000BF00BF00BF0846C06940F0805065
:10075000C8610846C06900F08050009000BF00BF2B
:1007600000BF0549486820F0E06040F00070486034
:1007700000BF08BD001002400000014001460846CD
:10078000002809DB00F01F0301229A4043099B0067
:1007900003F1E023C3F8002100BF70472DE9F05FAB
:1007A00080460D461646002701F0A4F80746394654
:1007B0002A46334601F00700C0F1070ABAF1040FD8
:1007C00002D94FF0040A01E0C0F1070AD14600F156
:1007D000040ABAF1070F02D24FF0000A01E0A0F1BB
:1007E000030AD4464FF0010A0AFA09FAAAF1010AEB
:1007F0000AEA020A0AFA0CFA4FF0010B0BFA0CFB98
:10080000ABF1010B0BEA030B4AEA0B04214640460D
:1008100001F078F8BDE8F09F00BF00F00702064B3A
:1008200019684FF6FF031940044B0B4343EA0221BA
:10083000014B196000BF70470CED00E00000FA05A5
:1008400070B504460D460CB9012070BD5A480068C9
:1008500000F00700A8420ED25748006820F00700B9
:100860002843554908600846006800F00700A84280
:1008700001D00120E9E7207800F0020002281DD114
:10088000207800F00400042805D14C48406840F46A
:10089000E0604A494860207800F00800082805D147
:1008A0004648406840F460504449486043484068C6
:1008B00020F0F000A168084340494860207800F02B
:1008C000010078B36068012806D13C48006800F454
:1008D000003090B90120B8E76068022806D1374897
:1008E000006800F0007040B90120AEE733480068AE
:1008F00000F0020008B90120A7E73048406820F066
:100900000300616808432D494860FFF797FE0646DB
:1009100009E0FFF793FE801B41F28831884202D93B
:10092000032092E707E02548406800F00C0061686A
:10093000B0EB810FEDD12048006800F00700A8421D
:100940000ED91D48006820F0070028431A490860A6
:100950000846006800F00700A84201D0012074E7B3
:10096000207800F00400042807D11448406820F4DF
:10097000E060E168084311494860207800F0080011
:10098000082808D10D48406820F46050216940EAE9
:10099000C1000A49486000F051F808494968C1F3AC
:1009A0000311074A515CC8400649086006480068C0
:1009B000FFF76AFE002048E70020024000100240D6
:1009C000F419000890030020880300200F22026021
:1009D0000D4A526802F0030242600B4A526802F06C
:1009E000F0028260084A526802F4E062C260064A7D
:1009F000526802F46052D2080261044A126802F09E
:100A000007020A6070470000001002400020024008
:100A100001480068704700009003002000B5FFF710
:100A2000F7FF04494968C1F3C221034A515CC84039
:100A300000BD000000100240041A0008F0B585B0A7
:100A40000FF26C0C9CE8E01001A8A0E8E0101CA5D7
:100A50002D68009500210022002300240020194D5C
:100A6000696801F00C05F5B1042D02D0082D19D1EB
:100A700001E0154819E001ADC1F38346AC5D01F416
:100A8000803555B10F4D6D68C5F340451DF8052003
:100A90000D4D6543B5FBF2F302E00C4D04FB05F38D
:100AA000184602E000BF084800BF00BF05B0F0BD17
:100AB00002030405060708090A0B0C0D0E0F10109F
:100AC000010200000010024000127A0000093D00FF
:100AD000F8B504460CB90120F8BD207800F00100FB
:100AE000002878D0F848406800F00C0004280CD0AA
:100AF000F548406800F00C00082811D1F248406821
:100B000000F48030B0F5803F0AD1EF48006800F46F
:100B1000003000285FD0606800285CD10120DBE74E
:100B200000BF6068B0F5803F06D1E748006840F438
:100B30008030E549086028E0606858B9E2480068FC
:100B400020F48030E04908600846006820F48020E6
:100B500008601AE06068B0F5A02F0BD1DA48006891
:100B600040F48020D84908600846006840F480308E
:100B700008600AE0D448006820F48030D249086058
:100B80000846006820F48020086000BF606888B1D3
:100B9000FFF754FD054606E0FFF750FD401B6428B3
:100BA00001D9032098E7C848006800F40030002805
:100BB000F2D010E0FFF742FD054606E0FFF73EFDEC
:100BC000401B642801D9032086E7BF48006800F471
:100BD00000300028F2D1207800F00200022857D11E
:100BE000B948406800F00C0050B1B748406800F0C8
:100BF0000C00082818D1B448406800F4803098B937
:100C0000B148006800F0020020B12069012801D03D
:100C1000012061E7AC48006820F0F800616940EA13
:100C2000C100A949086033E02069E8B10120A74963
:100C30000860FFF703FD054606E0FFF7FFFC401BD9
:100C4000022801D9032047E79F48006800F002000E
:100C50000028F2D09C48006820F0F800616940EA62
:100C6000C1009949086013E0002098490860FFF727
:100C7000E5FC054606E0FFF7E1FC401B022801D930
:100C8000032029E79048006800F002000028F2D114
:100C9000207800F0080008282DD1A069B8B1012003
:100CA0008B490860FFF7CAFC054606E0FFF7C6FC63
:100CB000401B022801D903200EE78348406A00F058
:100CC00002000028F2D0012000F0ACFC13E000206C
:100CD0007F490860FFF7B2FC054606E0FFF7AEFC6F
:100CE000401B022801D90320F6E67748406A00F04D
:100CF00002000028F2D1207800F00400042873D10B
:100D000000277148C06900F0805070B900BF6E487C
:100D1000C06940F080506C49C8610846C06900F065
:100D20008050009000BF00BF01276A48006800F4AF
:100D30008070B0B96748006840F480706549086009
:100D4000FFF77CFC054606E0FFF778FC401B6428B3
:100D500001D90320C0E65F48006800F480700028D5
:100D6000F2D000BFE068012806D15748006A40F081
:100D700001005549086227E0E06858B95248006A06
:100D800020F00100504908620846006A20F0040083
:100D9000086219E0E06805280BD14B48006A40F072
:100DA0000400494908620846006A40F001000862F0
:100DB0000AE04548006A20F00100434908620846FD
:100DC000006A20F00400086200BFE068A0B1FFF7ED
:100DD00035FC054609E0FFF731FC401B41F2883144
:100DE000884202D9032077E622E03748006A00F003
:100DF00002000028EFD012E0FFF720FC054608E0D3
:100E0000FFF71CFC401B41F28831884201D90320C6
:100E100062E62D48006A00F002000028F0D1012FA0
:100E200005D12948C06920F080502749C86100BF1A
:100E3000E069C8B32448406800F00C00082860D07E
:100E4000E069022848D1002020490866FFF7F6FB38
:100E5000054606E0FFF7F2FB401B022801D90320FC
:100E60003AE61948006800F000700028F2D1206AC4
:100E7000B0F5803F07D11448406820F40030A168E5
:100E8000084311494860D4E9080108430E494968FC
:100E900021F4741108430C49486001200B4908668D
:100EA000FFF7CCFB054607E03DE0FFF7C7FB401B23
:100EB000022801D903200FE60348006800F0007003
:100EC0000028F2D02FE00000001002400000424253
:100ED0008004424200700040002014490866FFF779
:100EE000ADFB054606E0FFF7A9FB401B022801D930
:100EF0000320F1E50E48006800F000700028F2D1F0
:100F000011E0E069012800D1E6E50948466806F4E9
:100F10008031206A814204D106F47011606A8142F6
:100F200001D00120D8E50020D6E5000000004242B3
:100F3000001002407047704730B502460B4600BFB4
:100F400092F83C00012801D1022030BD012082F836
:100F50003C0000BF022082F83D0010684468106821
:100F6000816824F070041868044310684460104DD0
:100F70001068A8420BD01068B0F1804F07D00D4D1B
:100F80001068A84203D00C4D1068A84205D121F08A
:100F900080015868014310688160012082F83D009B
:100FA00000BF002082F83C0000BF00BFCDE700007A
:100FB000002C0140000400400008004010B5044629
:100FC0000CB9012010BD94F83D0028B9002084F828
:100FD0003C00204600F026F8022084F83D00211D48
:100FE000206800F075FB012084F8460000BF84F8FB
:100FF0003E0001213F20015540200155412001556F
:1010000000BF00BF012084F8420043200155442066
:1010100001554520015500BF012084F83D00002006
:10102000D0E7000038B504460D492068884215D144
:1010300000BF0C48C06940F004000A49C861084676
:10104000C06900F00400009000BF00BF002204212E
:101050001E20FFF7A3FB1E20FFF790FB38BD00000A
:101060000008004000100240014691F83D000128B0
:1010700001D001207047022081F83D000868C06857
:1010800040F001000B68D860124B086898420BD002
:101090000868B0F1804F07D00F4B0868984203D022
:1010A0000E4B086898420CD10868806800F007026F
:1010B000062A0CD00868006840F001000B68186030
:1010C00005E00868006840F001000B681860002027
:1010D000D0E70000002C0140000400400008004060
:1010E000704710B5044620680069C0F34000D8B1CD
:1010F0002068C068C0F34000B0B16FF00200216802
:101100000861012020772068806900F0030018B191
:101110002046FFF7E5FF05E0204600F0ADF8204649
:1011200000F0ABF80020207720680069C0F3800051
:10113000D8B12068C068C0F38000B0B16FF004007F
:1011400021680861022020772068806900F44070DF
:1011500018B12046FFF7C4FF05E0204600F08CF8E8
:10116000204600F08AF80020207720680069C0F34C
:10117000C000D8B12068C068C0F3C000B0B16FF043
:10118000080021680861042020772068C06900F009
:10119000030018B12046FFF7A3FF05E0204600F04A
:1011A0006BF8204600F069F800202077206800697D
:1011B000C0F30010D8B12068C068C0F30010B0B10F
:1011C0006FF0100021680861082020772068C0694E
:1011D00000F4407018B12046FFF782FF05E020467A
:1011E00000F04AF8204600F048F8002020772068F8
:1011F000006900F0010058B12068C06800F00100EB
:1012000030B16FF0010021680861204600F036F827
:1012100020680069C0F3C01058B12068C068C0F3EE
:10122000C01030B16FF08000216808612046FFF7E0
:1012300081FE20680069C0F3801058B12068C06842
:10124000C0F3801030B16FF0400021680861204683
:1012500000F060F820680069C0F3401058B12068C1
:10126000C068C0F3401030B16FF020002168086101
:101270002046FFF760FE10BD7047704700680749C1
:10128000884201D1FFF7E0B90549884205D10548F8
:101290000168012901D9491E01607047002C0140F5
:1012A000000800400000002070B504460D4600BF55
:1012B00094F83C00012801D1022070BD012084F87F
:1012C0003C0000BF022084F83D002946204600F083
:1012D00044FA48B1012084F83D0000BF002084F8A2
:1012E0003C0000BF0120E8E72068C06820F0400013
:1012F0002168C8602068C06820F480402168C86008
:10130000012084F83D0000BF002084F83C0000BFAD
:1013100000BFD2E7704700BFFEE710B5012000F024
:1013200051FB012000F05AFB002000F057FB002089
:1013300000F048FB10BD10B5012000F043FB002079
:1013400000F04CFB012000F049FB10BD10B501205E
:1013500000F038FB002000F035FB10BDF0B585B083
:10136000002000900190029003902248816941F092
:1013700010018161816901F010010491816941F0DE
:1013800020018161816901F020010491816941F0AE
:1013900004018161816901F004010491816941F0D6
:1013A000080181618069012200F00800124E540397
:1013B000049021463046FFF73BF9104F4FF440753B
:1013C000012229463846FFF733F900940124022010
:1013D000CDE90240694601943046FEF78FFF0320B5
:1013E000CDE90240CDE9005469463846FEF786FF54
:1013F00005B0F0BD0010024000100140000C01409B
:1014000010B588B014216846FEF7FEFE0024164889
:1014100005941449069401601721C0E9011442F2B1
:101420000F71C0E9031480218161FFF7C7FD08B186
:1014300072B6FEE7009469460B480194FFF734FF4B
:1014400008B172B6FEE7059405A907480694FFF7B0
:1014500073FD08B172B6FEE70348FFF705FE08B05A
:1014600010BD0000000800409403002000BFFEE70C
:1014700000BFFEE770B5002418E004F1B0000021C1
:1014800000F0C2F80021084600F0BEF8002110204C
:1014900000F0BAF8002505E00121002000F0B4F8C2
:1014A000681CC5B2802DF7DB601CC4B2082CE4DBDD
:1014B00070BD10B5C82000F04BFA0021AE2000F03E
:1014C000A3F80021402000F09FF80021B02000F098
:1014D0009BF80021C82000F097F80021812000F03F
:1014E00093F80021FF2000F08FF80021A12000F0E8
:1014F0008BF80021A62000F087F80021A82000F03A
:1015000083F800211F2000F07FF80021D32000F095
:101510007BF80021084600F077F80021D52000F084
:1015200073F80021F02000F06FF80021D92000F0BE
:101530006BF80021222000F067F80021DA2000F08B
:1015400063F80021022000F05FF80021DB2000F0AA
:101550005BF80021492000F057F800218D2000F0B1
:1015600053F80021142000F04FF80021AF2000F0C4
:101570004BF8FFF77FFF10BD70B504460D4605F12F
:10158000B000002100F040F8102141EA14100021C1
:1015900000F03AF804F00F00002100F035F870BDBB
:1015A0002DE9F04180460E4615460027314640465B
:1015B000FFF7E2FF00240AE0124A02EB8511085D02
:1015C000012100F021F8781CC7B2601CC4B2102CB5
:1015D000F2DB701CC1B24046FFF7CEFF00240CE0E6
:1015E0006900491C074A02EB4111085D012100F026
:1015F0000BF8781CC7B2601CC4B2102CF0DBBDE83D
:10160000F08100000400002070B504460D461DB1B5
:10161000E0B200F059F902E0E0B200F03FF970BD2D
:101620007047000008B508490968C9084FF47A7284
:10163000B1FBF2F14143009100BF00BF00994A1E87
:1016400000920029F9D108BD90030020704770472F
:1016500030B58FB028216846FEF7D6FD14210AA8C0
:10166000FEF7D2FD01210804CDE900100024029408
:1016700002250491CDE90750000109906846FFF763
:1016800027FA08B172B6FEE70F20CDE90A054FF43C
:101690008060CDE90C4001210AA80E94FFF7D0F834
:1016A000002801D072B6FEE70FB030BD70470000D1
:1016B00010B50248FFF715FD10BD0000DC03002047
:1016C00010B50248FFF70DFD10BD00009403002087
:1016D00010B50268184B984208D0B0F1804F05D081
:1016E000164B984202D0164B984203D122F070025A
:1016F0004B681A43104B984208D0B0F1804F05D088
:101700000E4B984202D00E4B984203D122F4407205
:10171000CB681A4322F080034C6943EA040202605A
:101720008B68C3620B688362034B984201D10B69DB
:1017300003630123436110BD002C014000040040FD
:101740000008004030B50C46816821F47F4142EA30
:10175000032525432943816030BD2DE9F04105462D
:101760000C462868866826F070066068064326F0F6
:1017700007062068064328688660606800F00F014D
:1017800000293BD10011082838D2DFE800F03334BB
:1017900035360B272D04D4E90313A2682868FFF718
:1017A000D1FF2CE02068052802D10120BDE8F0819E
:1017B0002868D0F820802868006A20F00100296895
:1017C00008622868876927F0F007206947EA001750
:1017D000286887612868C0F8208010E02269A16825
:1017E000286800F00FF80AE02269A168286800F074
:1017F0001CF804E000BF00BF00BF00E000BF00BF56
:101800000020D3E730B50B461446026A056A25F07E
:1018100001050562816921F0F00141EA041122F01D
:101820000A021A438161026230BD30B50B4614468C
:10183000056A25F0100505628169026A21F470418C
:1018400041EA043122F0A00242EA031281610262FD
:1018500030BD00BFFEE72DE9F04105462C460020D3
:1018600000F0B0F8002615E0274607F08007802F2B
:1018700003D1012000F0B2F802E0002000F0AEF841
:101880006006040E012000F09DF8002000F09AF898
:10189000701CC6B2082EE7DBBDE8F08110B5044627
:1018A000FFF73BFD7820FFF7D6FFFFF74FFD002045
:1018B000FFF7D1FFFFF74AFD2046FFF7CCFFFFF708
:1018C00045FDFFF738FD10BD10B50446FFF725FDB7
:1018D0007820FFF7C0FFFFF739FD4020FFF7BBFF7F
:1018E000FFF734FD2046FFF7B6FFFFF72FFDFFF7A8
:1018F00022FD10BD02480068C0F3022070470000BE
:101900000CED00E010B5002804DB0A07130E054AB1
:10191000135406E00A07140E034A00F00F031B1FBE
:10192000D45410BD00E400E018ED00E010B5064806
:101930000068012806D141030448FEF76FFE6420C9
:101940000149086010BD00000000002000100140A7
:1019500010B504462046FEF7BDFC10BDFEF780FE24
:10196000FFF776FEFFF7FAFCFFF74AFDFFF7A1FD50
:10197000FFF780FD002211461046FFF711FE0122FD
:1019800000211220FFF70CFE022200212420FFF785
:1019900007FE032200213620FFF702FE0422002169
:1019A0004820FFF7FDFD052200215A20FFF7F8FD32
:1019B000062200216C20FFF7F3FD00BFFFF7B6FF02
:1019C000FCE7000010B5044622464FF4807102483F
:1019D000FEF72EFE10BD0000000C014010B50446BD
:1019E00022464FF400710248FEF722FE10BD0000AF
:1019F000000C014000000000000000000102030490
:101A00000607080900000000010203042C1A000860
:101A1000000000209403000028010008A01B00081B
:101A200094030020F40600008401000852011BF01A
:101A300010012AFF050215F01B0F04012AFF050201
:101A4000130F18094040405F55555575041A5F0C37
:101A5000091121080C11200F094989790909090F79
:101A6000201F112FFE02424ACA4A0304134202FEFB
:101A7000000E14FF40504C4340404F50505C40FF1C
:101A80001BF888012AFF050215F81B1F08012A7F91
:101A9000200B109F80E23B808201000916E2A29297
:101AA0008A86828080041840807F172424A4FEA3A5
:101AB000221B22CCAA011415080601FF2B010401E8
:101AC0000511FF0202025808101010FF109008C301
:101AD000021108080F100444827F01808040432CCB
:101AE00010284681A018094040484848C8784F0649
:101AF0000515484840400009150312122222528A57
:101B0000063C106080BA19040B11C030FB1E404027
:101B100043407F061C7F424106094FC02941080B04
:101B20001110D030FF30D0121C10101F3D080402DD
:101B3000019E0D1101020408211116FE222222FE2F
:101B40000712FE828292A29E100880601F024282CB
:101B50007F0F11FF402F102C438011000B14908831
:101B60004C57A42454548C84180801018042221A32
:101B700007441D423E01018AF9E1000D14E4242CC2
:101B8000B4252624B42C24E404180AFF02011E12F2
:101B900012121E4186011629D6395A1324F4000068
:04000005080000ED02
:00000001FF
